:020000041000EA
:10000000002008205D0100101301001015010010F0
:100010001101001011010010110100101101001058
:100020001101001011010010110100101701001042
:100030001101001011010010190100101B01001026
:100040001D0100101D0100101D0100101D010010F8
:100050001D0100101D0100101D0100101D010010E8
:100060001D0100101D0100101D0100101D010010D8
:100070001D0100101D0100101D0100101D010010C8
:100080001D0100101D0100101D0100101D010010B8
:100090001D0100101D0100101D0100101D010010A8
:1000A0001D0100101D0100101D0100101D01001098
:1000B0001D0100101D0100101D0100101D01001088
:1000C0001D0100101D0100101D0100101D01001078
:1000D0001D0100101D0100101D0100101D01001068
:1000E0001D0100101D0100101D0100101D01001058
:1000F0001D0100101D0100101D0100101D01001048
:100100001D0100101D0100101D0100101D01001037
:1001100000BE00BE00BE00BE00BE00BEEFF3058004
:10012000103800BEF2EB8871E871001010720010F8
:10013000A801001090A31AE7D3DEFFFF42012110AF
:10014000FF010000E4800000793512AB4FF00000A1
:100150002049086006C881F3088810474FF05040D6
:10016000006810B14FF00000F2E70FA40ECC002998
:1001700002D000F015F8F9E71749184A002000E00E
:1001800001C19142FCD1002080F30A8814498847BC
:10019000144988471449884700BEFDE701C901C2D8
:1001A0009A42FBD3704700BF10720010100100206C
:1001B0001C1100201C8200100000082000000820F4
:1001C0001C82001000100820001008200000000011
:1001D0007047000008ED00E01C110020C01E002048
:1001E0004D2F001079020010112F0010F8B500BF3C
:1001F000064B0749C91A891048BF0131491003D07D
:10020000044B0BB101481847704700BF1C11002078
:100210001C1100200000000008B5054B1BB105496A
:100220000548AFF30080BDE80840FFF7E1BF00BF1D
:1002300000000000501E0020A862001070B584B0BD
:1002400005460C4601AB02AA03A901F061F918B9F1
:1002500054B9204604B070BD0646019A029903982D
:1002600001F024F93446F4E72946014800F0DEF8AD
:10027000A86200100000000070B501214E48FFF791
:10028000DDFF02F077FF012409E0C4F114014B48BF
:1002900002F0A2FF4FF47A7000F0B0FF0134142C8A
:1002A000F3DD012405E0C4F11401454802F094FF98
:1002B0000134142CF7DD192000F0ACF819234FF0AD
:1002C000010242EC44302F2005F0A6FF3D4802F029
:1002D00055FF3D4B9E6A002404E02146204605F070
:1002E000BBFF0434B4F5000FF7D3374DAC6AA41B41
:1002F000204601F081FC02460B462DA1D1E9000108
:1003000001F00CFC01F058FC07EE900AFCEEE77AD5
:1003100017EE902A21462D4802F05EFFAD6A0024B8
:10032000B4F5000F06D2204605F06AFF844236D1AC
:100330000434F5E7244B9C6A641B204601F05CFC06
:1003400002460B461AA1D1E9000101F0E7FB01F0DA
:1003500033FC07EE900AFCEEE77A17EE902A21466E
:100360001B4802F039FF4FF47A7000F047FF19483C
:1003700002F004FF4FF47A7000F040FF19244FF0B0
:10038000000343EC4040FA2000F038FF4FF0010337
:1003900043EC40404FF47A7000F030FFEEE7214626
:1003A0000D4802F019FF012070BD00BFAFF30080BF
:1003B0000000000080849E42C0450400DC62001002
:1003C00030630010F462001000000B40086300105E
:1003D0005463001080630010346300100C4B03EB77
:1003E000800253F8203083F0400303F0C00302F58D
:1003F000805CCCF80030C00000F1804000F5203077
:10040000416002F540524FF480731360704700BFA3
:100410000480034008B54FF0000242EC440042EC77
:1004200040000521FFF7DAFF08BD00000FB400B55A
:1004300083B0049C074802F0A1FE3CB105A90191DC
:10044000204602F0ABFE044802F098FE012002F0C4
:100450005DFD00BFC063001030630010EFF310803B
:1004600072B6064BD3E8CF1F01220029FAD1C3E8A8
:10047000412F0029F6D1BFF35F8F704797150020F9
:100480000023034AC2E88F3F80F31088704700BF03
:100490009715002070B505460C461646FFF7DEFF9F
:1004A000E208A95C04F0070C012303FA0CF31942DB
:1004B00005D1DBB20B43AB54FFF7E2FF70BD214621
:1004C0003046FFF7B3FFF8B506460D4614461F4603
:1004D000FFF7C4FF00E00134BC420ED84FEAD40C51
:1004E00016F80C1004F0070301229A401142F2D1D1
:1004F000D2B20A4306F80C2001E04FF0FF34FFF7B8
:10050000BFFF002C01DB2046F8BD002DFBD0069874
:10051000FFF78CFF054A1078431CDBB21370172BD2
:1005200002D9134610221A70704700BF78100020BD
:1005300000B583B00146054B00931F2318220448E1
:10054000FFF7C1FF03B05DF804FB00BFD0630010EC
:10055000E41900204FF0E022936843F000539360C9
:1005600070470000002305E0044A1A440021C2E855
:100570008F1F01331F2BF7D9704700BF8C15002048
:10058000064B9B68103043F82010BFF35F8F0023A9
:100590000349C1E88F3F82F31088704700ED00E007
:1005A000951500200048704700E400E008B5FFF70B
:1005B000F9FF002304E04FF0803240F8042B0133B0
:1005C0000C2BF8D908BD000008B50388DA0A1C2AEC
:1005D00006D15B050BD45B15023300EB430008BD6D
:1005E000064B074A40F20F11064802F095FC03F54E
:1005F000FF1303F5FF531F33EDE700BFEC6300105B
:10060000686C00100464001008B5091A01F2FC724D
:1006100040F6FE739A4208D8081F11F0010F04D16A
:10062000C0F34A0040F4604008BD034B034A40F267
:100630000111034802F070FC446400105C6C00106F
:10064000046400104209064B53F8222000F01F00FA
:10065000012383401A4214BF01200020704700BFCD
:1006600000E100E03AB1064B00F1600243F82210CD
:1006700043F8201070472030014B43F8201070479A
:1006800000E100E008B50A4600F01F03012199408F
:100690004009FFF7E7FF08BD00F01F0240090123F2
:1006A00093404030014A42F82030704700E100E0BA
:1006B000024B9B68103053F82000704700ED00E0BB
:1006C00008B5FFF7F5FF28B1044A831A2F2B03D88A
:1006D000012008BD0020FCE70020FAE77C10002084
:1006E00070B505460C46EFF3108672B60F4BD3E893
:1006F000CF1F01220029FAD1C3E8412F0029F6D1EA
:10070000BFF35F8FFFF7D4FF094B984201D0A0429F
:1007100005D1324621462846FFF732FF70BD054B12
:10072000054AE121054802F0F7FB00BF95150020BE
:100730001D01001074640010906C0010046400101F
:100740002DE9F04F87B000911546EFF3108A72B68D
:100750007C4BD3E8CF1F01220029FAD1C3E8412FF7
:100760000029F6D1BFF35F8F774B93F90040002C3F
:1007700044DB804604EB4407744B03EB870797F98F
:100780000610714A1170724A926800F1100152F815
:100790002190A9EB03022F2A3ED96E4B994534D103
:1007A0004FF42143ADF80C304FEA440904EB440008
:1007B000664E06EB800068490230FFF725FFADF872
:1007C0000E004BF60153ADF81030FF238DF81230B8
:1007D0008DF81350009B0593A14406EB890306AAEC
:1007E00012E9070083E8070047F00109524649462D
:1007F0004046FFF7C5FE07B0BDE8F08F574B584A9B
:1008000040F26D11574802F087FB574B544A4FF4A2
:10081000BA71544802F080FB29F0010BABEB0303E3
:10082000524AA2FB0312D20802EB4202B3EB820F40
:100830000FD15B460026DA79AA4212D993F9062035
:10084000002A0DDB02EB42021E46404B03EB820303
:10085000F1E7474B424A40F28511424802F05CFB07
:100860001E46A6B344F60103ADF80C304FF48F4397
:10087000ADF80E3096F906B0BBF1000F1ADA4BF660
:100880000150ADF810008DF812B08DF81350009B98
:1008900005933946301DFFF7B7FEB080B47104EB05
:1008A00044042A4B03EB840306AA12E9070083E8F9
:1008B00007009BE7301DFFF787FE014604EB44026B
:1008C000224B03EB8203181DFFF79EFED9E74FF47E
:1008D0002143ADF80C306300019304EB4406DFF8CC
:1008E0006C9009EB86061C49B01CFFF78DFEADF835
:1008F0000E005946301DFFF787FEADF810004AF68E
:10090000AA235A464946521A524153431B0D8DF8A9
:1009100012308DF81350009A0592019B234409EB85
:10092000830906AB13E9070089E8070044F60103D1
:10093000ABF800304FF48F43ABF8023047F00109B9
:1009400054E700BF95150020B81E00207C10002041
:1009500000ED00E01D010010AC100020AC640010A0
:10096000786C001004640010D4640010ABAAAAAA2A
:10097000FC64001038B540F00104324BE31A2F2B11
:1009800031D8EFF30581C9B2002933D0EFF3108ECF
:1009900072B62D4BD3E8CF5F0122002DFAD1C3E808
:1009A000452F002DF6D1BFF35F8F4AF6AA230246EA
:1009B000244D521B524153431B0D4FFA83FC234BD2
:1009C0009B6853F82130A3421BD00023032B32D85D
:1009D00003EB43011B4A02EB810292F906206245B8
:1009E00020D00133F2E71A4B1A4A40F26E211A481E
:1009F00002F092FA194B174A40F27121164802F0A0
:100A00008BFA124B9B68164A43F82120154B1A7833
:100A1000827183F800C000230B4AC2E88F3F8EF337
:100A2000108838BD074A02EB8101FF248C714BF618
:100A300001538B80EAE70C4B064A40F282210648BC
:100A400002F06AFA7C1000209515002000ED00E00D
:100A500080650010406C001004640010A865001050
:100A60001D010010B81E0020B465001000B583B051
:100A70000146074B0093052300220648FFF723FD9C
:100A8000002801DBC0F1330003B05DF804FB00BFB8
:100A9000BC650010BC1E0020014B0B440360704776
:100AA0008C15002010B50446FFF734FD01462046A2
:100AB000FFF7F2FFFF232371BFF35F8F10BD10B567
:100AC0000446FFF727FD01462046FFF7E5FFFF2319
:100AD000237100236371BFF35F8F10BD10B50D4C00
:100AE00009E00D4B0D4A1A210D4802F015FA204677
:100AF000FFF7D8FF08340B4B9C4209D22368002B28
:100B0000F5D0012BEDD12046FFF7D9FF0834F2E7ED
:100B100010BD00BF14110020D8650010D06C00106B
:100B2000F86500101C110020024B0B440360BFF35A
:100B30005F8F70478C15002010B504460120FFF729
:100B4000F7FC01462046FFF7EFFF10BD0246EFF32A
:100B50000583DBB2103B990804D0034803F003037C
:100B6000136070470148F9E700800B4000000B401C
:100B700041EA0040704700000D4B1A68EFF3108106
:100B800072B6D2E8CFCF0120BCF1000FF9D1C2E894
:100B90004C0FBCF1000FF4D1BFF35F8F1A68002334
:100BA000C2E88F3F81F3108840BF002000217047CA
:100BB000981E00202DE9F04F85B003A8FFF7C6FF6F
:100BC0008F4B984214BF00230123039901EB830349
:100BD0008C4A52F823402378994206D105460122D7
:100BE0008A4000F541535A6020E1874B874A9221A1
:100BF000874802F091F9D4F8149006EB46074FEAC3
:100C0000C70A09EBC707D7F808B0D7F80C80284601
:100C100000F0B8FBB0EB0B0061EB0803002BC0F257
:100C20000E81B8F1000F60DB3B691A460093794BE7
:100C30009A4230D0798889B2B4F90800FFF798FF5A
:100C40007969009B9847009001910099019A51EAB7
:100C500002034AD01346002A29DABBEB010268EBF3
:100C60000308BA60C7F80C8039F90A30002BC0F2CB
:100C7000E680D4F814E003EB43010EEBC101886871
:100C8000C968101A68EB01010029C0F2D880A44697
:100C90002CF8083F15E07A691369009210469847CE
:100CA00018B3009A1368009353680193CDE7284660
:100CB00000F068FB009B1A18019B43EB0108D0E78A
:100CC0009C46BCF90070002F0ADB07EB47030EEBD4
:100CD000C3039868D968101A68EB01010029EFDA9C
:100CE00029F80A70ACF80060A9E039F90A302381CC
:100CF0002369EFF3108272B6D3E8CF0F01210028E9
:100D0000FAD1C3E8401F0028F6D1BFF35F8FB4F9D2
:100D1000023029F80A30668021690023C1E88F3F3C
:100D200082F310888BE02369EFF3108272B6D3E868
:100D3000CF0F01210028FAD1C3E8401F0028F6D1C7
:100D4000BFF35F8FB4F804800FFA88F84FF6FF7393
:100D5000A38021690023C1E88F3F82F3108815E04A
:100D60001E46B6F90020002A0ADB02EB42030CEB18
:100D7000C3039868D968381A6EEB01010029EFDACD
:100D8000A6F800803CF909802CF80920B8F1000F82
:100D90005ADBD4F814C008EB48034FEAC3090CEB44
:100DA000C3039F68D3F80CE004F10806D9E70023D9
:100DB000A37104F1080CB4F9083010E04FF0FF38CB
:100DC0004FF0FF39C0E90289B4F90800984205D014
:100DD000ACF80020B4F90800C85323811346B3F1DE
:100DE000FF3F34D0616903EB4302D70001EBC2003F
:100DF00031F93220468816F4004FDFD18446EDE702
:100E000000800B40701E002088660010FC6C0010F3
:100E1000B4660010B50B0010284600F0B3FA361A7D
:100E200067EB0107012E77F100072EDA039A012301
:100E30009340EB63B4F90860002EBFF6DCAEA388E4
:100E400013F4004F3FF46FAFA379002BAFD1B4F987
:100E50000830002B19DB626903EB430302EBC30389
:100E60009E68DF68B7F1FF3F08BFB6F1FF3FD3D000
:100E7000039AA96A701A131D55F823305B1A984219
:100E8000CAD2043245F82260C6E740BF05B0BDE8CB
:100E9000F08F00BFF8B504460D4611460A4B984244
:100EA00010D000262E44012707FA05F525623046AA
:100EB000FFF716FC39463046FFF7E4FB04F5015412
:100EC0002560F8BD0426EDE700800B40F8B5044628
:100ED0000E4617461D46C160FFF71CFB164B034428
:100EE00023612770ABB263814FF050421278627079
:100EF0004FF6FF722281A280013B63804FF0000C0D
:100F000008E00CF1FF300CEB4C0E636923F83E0057
:100F10000CF1010CAC45F4D3084B9E4214BF0023E6
:100F2000012307EB8303064A42F82340054A39466A
:100F30003046FFF7AFFFF8BD8C15002000800B4056
:100F4000701E0020B50B001008B5054B1B690BB1D6
:100F5000034808BD034B044A6521044801F0DCFF47
:100F6000C4100020F0660010E46C0010B46600109D
:100F7000F8B504469E460069EFF3108172B6D0E8DA
:100F8000CF6F0125002EFAD1C0E8465F002EF6D1C2
:100F9000BFF35F8FB4F90250666905EB4500C700E7
:100FA00006EBC000002D03DB36F907C0A4F802C031
:100FB0004FF0000C2369C3E88FCF81F3108865459B
:100FC00033DB06990161079941618260C0F80CE04A
:100FD000418889B20131C1F30E0101B9012141807B
:100FE0002846FFF7C5FD2369EFF3108272B6D3E8F8
:100FF000CFCF0121BCF1000FF9D1C3E84C1FBCF1E8
:10100000000FF4D1BFF35F8FA388F353A58021694C
:101010000023C1E88F3F82F31088E3682178012222
:101020008A4003F501535A60F8BD4FF0FF30FBE7EB
:1010300070B582B0064615461C469DF8203033B97F
:1010400000F0B6F9854264EB010100290ADB079B39
:101050000193069B00932A4623463046FFF788FFFC
:1010600002B070BD0020FBE7F0B585B005460C4628
:1010700016461F46FFF768FF9DF828300293019738
:1010800000962A462346FFF7D3FF05B0F0BD03467E
:101090004089B0EB214F31DD10B50A14586902EBDD
:1010A000420200EBC2001A69EFF3108C72B6D2E86C
:1010B000CF4F5FF0010E002CF9D1C2E844EF002CB5
:1010C000F5D1BFF35F8F428892B289B28A420FD0C6
:1010D000002019690022C1E88F2F8CF3108830B1ED
:1010E000DA681B780121994002F50153596010BD5F
:1010F00042F40042428001209871EAE700207047E4
:1011000010B50446FFF720FF2146FFF7C0FF10BDD2
:1011100040787047F0B583B0EFF30583DBB2CBB90D
:1011200005460F46861F41F1FF34B04271EB0403C0
:1011300001D20026344600F03BF9301A64EB01037B
:10114000012873F1000308DA2846394600F038F91F
:1011500003B0F0BD1C48FFF769F9002300931B4A58
:1011600030462146FFF780FF00281EDAECE7002317
:1011700000E00023002BE7D1154B1A68EFF3108134
:1011800072B6D2E8CFCF0120BCF1000FF9D1C2E88E
:101190004C0FBCF1000FF4D1BFF35F8F1A6800232E
:1011A000C2E88F3F81F3108820BF0A4B5B6A9C42E4
:1011B000DFD80849896AB14203D29C42D7D00123C3
:1011C000D8E70123D6E700BF14670010790B0010A1
:1011D000981E002000000B4038B504460D4600F074
:1011E000E7F8201845EB0101002902DBFFF792FF29
:1011F00038BD4FF0FF306FF00041F7E708B5C30E80
:101200004101091A63F100039B0043EA91738900CD
:10121000091843F10003DB00C80043EA5171FFF7EE
:10122000DBFF08BD30B583B005460C46EFF3058300
:10123000DBB293B1394B5B6A8B4209D3374A926A6E
:10124000824208D28B4201D0012002E0002000E05F
:10125000002003B030BD0120FBE7FFF775FEC16839
:1012600003788A6AA81A043351F823309B1A9842EB
:1012700012D320BF294B5B6A9C4209D8274A926A45
:10128000954207D99C4201D00120E2E70020E0E727
:101290000020DEE70120DCE700230093204A2846F7
:1012A0002146FFF7E1FE00280BDD1C4B5B6A9C42E8
:1012B0001BD81A4A926A954228D99C4213D001231E
:1012C00014E0164B5B6A9C4209D8144A926A954214
:1012D00007D99C4201D00120BBE70020B9E70020DC
:1012E000B7E70120B5E7002300E0002303B920BFE2
:1012F000FFF706FF094B5B6A9C420BD8074A926ACC
:10130000954209D99C4203D00120A2E70123EDE7D1
:1013100000209EE700209CE701209AE700000B4098
:10132000790B00100048704700000B4010B50A4BC5
:101330001B6923B10A210948FFF7AEFB10BDFFF777
:10134000F1FF0446032100F00BF81023032221468D
:101350000148FFF7BBFDEDE7C4100020981E0020F8
:1013600010B5054A054C064BA04214BF1846581C40
:10137000FFF790F810BD00BF6467001000800B40BD
:10138000E81900200246436A906A1946536A994256
:10139000FAD17047416A00E0416A9942FCD300E00B
:1013A000416A994202D1816A9142F9D370470000A3
:1013B00008B50248FFF7E6FF08BD00BF00000B407C
:1013C00008B502460B460248FFF7E4FF08BD00BF20
:1013D00000000B4070B51646049D00EB400C4FEA30
:1013E0008C0C0CF1804C0CF5803CDCF80420AA42FB
:1013F00001D2CCF80450A0F1040E5FFA8EFEBEF1CB
:10140000010F28D90CF540524FF4006414601E4AB5
:1014100052F8202042B11C4C6469B4FBF2F4013450
:1014200004EB4404033CFDD2DCF8002082EA4612BF
:1014300002F0E0020CF580542260BEF1010F16D9D3
:101440000CF500524FF400611160CCF804500E4AC4
:1014500042F8203070BD0129D4D10CF5405203244C
:101460001460DCF8082012F0010FFAD0DCE7DCF899
:1014700000204A4002F003022260DCF8084001220A
:101480008A401442F9D0DBE7EC19002010B582B095
:101490004FF480340094FFF79DFF02B010BD0000B0
:1014A000014B53F820007047EC190020F0B583B0D1
:1014B00004460D461646134F3B46012211460520B1
:1014C000FFF7E4FF00962B46224601210E4800F06C
:1014D00059F806FB05F5B4FBF5F40C4B002202218C
:1014E0000420FFF7D3FF2346002201210520FFF748
:1014F000CDFF3B46022200210620FFF7C7FF03B0C5
:10150000F0BD00BF006CDC0200000540001BB7000E
:101510002DE9F04104460E46174698464FF4A07553
:101520001AE0013B9BB103FB00FCB2FBFCFEA645AD
:10153000F7D10CFB1E210029F3D1104A02FB05F55F
:1015400035603860C8F800300120BDE8F08101380E
:1015500008B10346E6E7013D0F2D0CD942F6E062E3
:1015600005FB02F2A2F53723A3F5D87304498B4299
:10157000F1D80720ECE70020E7E700BF001BB70029
:1015800050F80C0070B5049C344DB5FBF1FC344DA3
:101590001544344EB54237D8B2FBFCF5A5F1100E18
:1015A000BEF5987F36D803F1FF3EBEF1060F37D85F
:1015B00004F1FF3EBEF1060F32D8BCEB121F35D846
:1015C000240344EA03440368002B35DB264B98428E
:1015D00042D00E2301229A40244B1A6003F5805317
:1015E0001A60234B9B6832EA0303FAD101608560DD
:1015F00000F540520432212313600368002BFCDA0B
:10160000C4600823136070BD1A4B1B4A11211B488C
:1016100001F082FC1A4B184A1921184801F07CFC91
:10162000184B154A1C21154801F076FC164B124A3E
:101630002321124801F070FC036803F03F038B4242
:10164000C4D18368C3F30B03AB42BFD1C36803F4B7
:10165000EE23A342BAD1D6E70F23BBE7001BB700A6
:1016600080E84BD380F8A93200800540002002407A
:101670000000024088670010146D0010D867001049
:10168000186800103468001080680010024B1A6857
:10169000024B5A60704700BF481E002000800D407A
:1016A00008B5164B4FF080421A60A3F54123144A47
:1016B0009A6051B103F540234FF0E0621A6048B9D7
:1016C000104B4FF000421A6008BD0C4B4FF0E06227
:1016D0001A60F4E74FF47A7303FB00F00A4B1860CA
:1016E000B0F1807F02D36FF07F421A60FFF7CEFF28
:1016F000044B4FF080421A60E6E700BF00B00D4097
:10170000F3FFFF0100A00D40481E002010B50C4B58
:101710004FF080441C6070B140F0010309480A4C4E
:10172000C4610A4C5C40046241628362002110463D
:10173000FFF7B6FF10BD034B0021D961F6E700BFEC
:1017400000B00D4000800D40D3C007B02D3FF84FD2
:10175000054A00EB400302EB8303596000EB4000B5
:101760008000012313507047008010402DE9F041A4
:1017700005460E46174698460023DB8A002242E8BB
:1017800000F212F4800F0BD1102144F2522098473E
:10179000044643463A4631462846A047BDE8F08114
:1017A000042144F2522098470446F2E708B500238A
:1017B000DB8A002242E800F212F4800F02D11021ED
:1017C000984708BD04219847FBE708B5031E06DBD0
:1017D00041F0200012B141F0300100E001460A461C
:1017E0000A214FF48170FFF7C1FF0000034BD3F8CB
:1017F0002838002BFAD0BFF35F8F704700000E40EF
:10180000002207E0054B13449B00BFF35F8F0021CC
:1018100019600132072AF5D9704700BF038203100F
:1018200008B5FFF7EDFF08BD074B4FF42A621A60B9
:101830002F22DA6003F50053044A1A60024B5B68FA
:10184000002BFBDA704700BF0080044000B0FA00B4
:1018500010B5044602E054F8043B9847014B9C4203
:10186000F9D310BDA06200107047000008B502480F
:10187000FFF7EEFF08BD00BF60620010064B074A8D
:101880001A6003F58053064A1A60064B9A68044BA7
:101890009343FAD1704700BF002002407F3BEFEF37
:1018A000F6FFF30300000240054BDB6CB3F5004F7D
:1018B00000D07047034B4FF48022DA64F9E700BF91
:1018C00000001150002011504FF0E022D2F8881D86
:1018D000034B0B43C2F8883D10EE3004704700BF45
:1018E00003033000054B6FF060421A60044B9B68A5
:1018F000DB4333F06043F9D1704700BF0030024052
:101900000000024008B545F25320FFF74FFF0346A1
:101910000420984708BD08B545F25320FFF746FF5D
:1019200003460120984708BD08B5FEF71BFE08BD19
:1019300038B5054CA168054D4FF48872284604F06F
:10194000B1FBA56038BD00BF00ED00E00000002045
:1019500038B50420FFF7A4FD064BA3FB0035AD0C02
:10196000002404E02946E0B2FFF7F2FE0134052C22
:10197000F8DD38BD83DE1B4330B583B0264B002233
:10198000C3F88420FFF750FF244B0122DA63224B77
:101990005B6C012BFBD1214B03221A631E4B9B6B0B
:1019A000012BFBD10224009405231D4A01211D486F
:1019B000FFF7E8FD052500952B461B4A01211B4832
:1019C000FFF7E0FD1A4B002221460420FFF75EFDE1
:1019D000184C2346002201212846FFF757FD164DDB
:1019E0002B46002211460820FFF750FD2B4600220F
:1019F00011460920FFF74AFD234600221146062022
:101A0000FFF744FD2346002211460720FFF73EFD65
:101A1000FFF79EFF03B030BD0000014000300140E1
:101A2000002F685900000540008C86470080054063
:101A3000001BB70080D1F008006CDC0286B003B454
:101A400051FC0804CDE9020151FC0904CDE904016F
:101A500051EC0A04CDE9060103BCF047BDE8005093
:101A60004EEC00C4BDE800504EEC01C4BDE800508F
:101A70004EEC02C400BD000000B5FFF7DFFF02E03E
:101A800010FE30F4F8D441EC100443EC112400EEC5
:101A9000010410EE010480EE200451EC10047047A4
:101AA00000B5FFF7CBFF02E010FE30F4F8D441ECB4
:101AB000100443EC112400EE010410EE210480EE2A
:101AC000200451EC3004704700B5FFF7B7FF02E087
:101AD00010FE30F4F8D410B541EC100443EC11249E
:101AE00051EC040453EC0524A0FB024C5FF0000E03
:101AF000E0FB03CEE1FB02CE4CEC20440024E1FBF2
:101B000003E444EC30E480EE200451EC5004BDE8E2
:101B10001040704700B5FFF791FF02E010FE30F46F
:101B2000F8D441EC100443EC112451EC2104A0FB47
:101B300001126FEA820252FB100052FB12F252FBBA
:101B40001000A0EBD07C53EC04245CFB13F153ECAD
:101B50001524A1FB022001FB030053EC4424A2EB5B
:101B6000000050FB1CF24FEA111312EB017043EB23
:101B7000E27140EA515020EA915020F0070053EC06
:101B80007524A0FB023C53EC752400FB03CC01FB45
:101B900002CC53EC0424ACEB824C40EA5C70A0F124
:101BA000010041EC400480EE200451EC70047047C9
:101BB00000B5FFF743FF02E010FE30F4F8D441EC2B
:101BC000100480EE220410EEB204704700B5FFF757
:101BD00035FF02E010FE30F4F8D440EC700400EE63
:101BE000010410EE210480EE200451EC3004704713
:101BF00000B5FFF723FF02E010FE30F4F8D440EC0C
:101C0000600400EE010410EE210480EE200451EC8B
:101C10003004704700B5FFF711FF02E010FE30F40A
:101C2000F8D441EC800400EE010410EE010480EED3
:101C3000400410EE1304704700B5FFF7FFFE02E00A
:101C400010FE30F4F8D441EC800400EE010410EEF4
:101C5000010480EE400410EE3304704700B5FFF736
:101C6000EDFE02E010FE30F4F8D441EC100443EC39
:101C7000112400EE010410EE3004C0F30070704730
:101C800000B5FFF7DBFE02E010FE30F4F8D443ECC1
:101C9000102441EC110400EE010410EE30F48CBF6E
:101CA00001200020704700BF00B5FFF7C7FE02E02B
:101CB00010FE30F4F8D443EC102441EC110400EE93
:101CC000010410EE30F42CBF01200020704700BF4B
:101CD00000B5FFF7B3FE02E010FE30F4F8D441EC9B
:101CE000100443EC112400EE010410EE30F42CBF7C
:101CF00001200020704700BF00B5FFF79FFE02E003
:101D000010FE30F4F8D441EC100443EC112400EE42
:101D1000010410EE30F48CBF01200020704700BF9A
:101D2000704720B108B50A684968904708BD7047F8
:101D30000146002008E000EB8000531C0B60137884
:101D400003EB4003A3F130000A681378303BDBB2A9
:101D5000092BF0D970472DE9F04F83B005460E46A8
:101D600093461F46DDF830A00D9CDDF838900F9BA0
:101D700013F0030F19D1A0460192C84509D202F110
:101D8000010B3B4631462020A84708F101085A467E
:101D9000F3E7DDF804B008E0013C02F101083B463E
:101DA00031461AF80400A8474246002CF4D10F9B94
:101DB00013F0020F03D1104603B0BDE8F08FA2EB81
:101DC0000B034B45F7D2541C3B4631462020A84715
:101DD0002246F4E72DE9F04385B099460C9D0D9C11
:101DE0009DF83880DDF840E0119F129E16F0020F3A
:101DF00021D17FB116F0010F0CD0B8F1000F02D144
:101E000016F00C0F06D0013F04E04FF0300C05F83F
:101E100004C00134744501D21F2CF6D916F0010F0D
:101E200009D0BC4207D21F2C05D84FF0300C05F862
:101E300004C00134F2E716F0100F14D016F4806FCE
:101E400004D11CB1744522D0BC4220D00F9B102B72
:101E500036D00F9B022B3ED01F2C0ED84FF0300CEB
:101E600005F804C001341F2C07D8B8F1000F3AD090
:101E70004FF02D0C05F804C001340396029701942D
:101E800000954B46FFF767FF05B0BDE8F083B4F15E
:101E9000010C13D00F9B102B0ED064460F9B102B00
:101EA000D7D116F0200FD4D01F2CD2D84FF0580C19
:101EB00005F804C00134CFE7023CC7E76446C5E734
:101EC00016F0200FEAD11F2CE8D84FF0780C05F857
:101ED00004C00134C0E71F2CCFD84FF0620C05F8C6
:101EE00004C00134B8E716F0040F05D04FF02B0CF6
:101EF00005F804C00134C0E716F0080FBDD04FF05C
:101F0000200C05F804C00134B7E7F0B591B0169C79
:101F1000189D1B9E0CB926F0100616F4806E16D084
:101F200064B34FF0000E12E00CF1300C5FFA8CFC41
:101F30000EF101070EF1400EEE440EF820CCB4FB7A
:101F4000F5FCAC421BD31F2F19D8BE466446B4FB28
:101F5000F5FC05FB1C4C5FFA8CFCBCF1090FE3D9C6
:101F600016F0200F08D04127BC445FFA8CFCACF17E
:101F70000A0C5FFA8CFCDBE76127F5E7274606963B
:101F80001A9C0594199C049403959DF85C40029456
:101F9000019708AC0094FFF71DFF11B0F0BD2DE9CB
:101FA000F04F95B009900A910B929846DDF878B001
:101FB000DDF87C90229D239F269E5BEA090201D1D9
:101FC00026F0100616F480641ED05BEA09022FD0BA
:101FD000002419E03032D3B204F1010A04F15002B6
:101FE0000DEB020404F8203C2A463B46584649467D
:101FF00004F01AF9AB4579EB07091BD3BAF11F0FAF
:1020000018D85446834689462A463B465846494690
:1020100004F00AF9D2B2092ADCD916F0200F05D053
:1020200041231344DBB20A3BDBB2D5E76123F8E777
:102030004FF0000A0696259B0593249B0493039575
:102040009DF880300293CDF804A00CAB009343467A
:102050000B9A0A990998FFF7BDFE15B0BDE8F08FFD
:102060002DE9F04F91B004460D4617461E46DDE9B6
:102070001A2310461946FFF7F5FD002840F0ED80C1
:102080004FF0FF32AE4BDDE91A01FFF739FE0028B1
:1020900040F0E3804FF0FF326FF48013DDE91A0166
:1020A000FFF7F2FD002840F0D88000220023DDE990
:1020B0001A01FFF7E9FD002840F0E2809DED1A7B50
:1020C0008DED067B1E9B13F480630D9301D10623D7
:1020D0001C93DDE9062310461946CDE9080152EAB2
:1020E000030100F0D880C3F30A50C3F313039046F2
:1020F00043F07F5949F44019A0F2FF30FFF76AFD21
:102100007DA3D3E90023FFF7E3FC7DA3D3E90023FC
:10211000FFF7B6FC82468B4600228A4B4046494672
:10212000FFF7C2FC78A3D3E90023FFF7D1FC0246F6
:102130000B4650465946FFF7A3FCFFF76FFD82465A
:10214000FFF748FD8046894671A3D3E90023FFF7D6
:10215000BFFC00227C4BFFF793FCFFF75FFD83463B
:102160006DA3D3E9002340464946FFF7B1FC804602
:1021700089465846FFF72EFD69A3D3E90023FFF7F0
:10218000A7FC02460B4640464946FFF78DFC8046B9
:10219000894602460B46FFF79BFCCDE90A010BF28C
:1021A000FF3B00210022CDE908124FEA0B530993AF
:1021B0000023089342464B4640464946FFF760FCE1
:1021C000CDE90E0142464B4600204FF08041FFF71B
:1021D0006BFC8046894600225C4BDDE90A01FFF773
:1021E0009DFC00225A4BFFF74BFC02460B46DDE9F3
:1021F0000A01FFF793FC0022564BFFF741FC024611
:102200000B46DDE90A01FFF789FC02460B46404612
:102210004946FFF735FC02460B46DDE90E01FFF7A4
:102220007DFC00224C4BFFF72BFCDDE90823FFF778
:102230004FFC80468946CDE90889DDE90623FFF792
:102240005FFD50B30AF1FF3A0022414B4046494638
:10225000FFF764FCCDE908011FE01E9B04931D9B62
:1022600003931C9B02939DED1A7B8DED007B3346FF
:102270003A462946204600F003F911B0BDE8F08F38
:102280009FED297B8DED067B1A9B06931B9B03F12B
:102290000043079316E74FF0000A0AF16303C62BC9
:1022A00027D84FF004081E9B13F4006F5FD0DDE9C0
:1022B000081213460B4313D01DA3D3E90023DDE915
:1022C0000601FFF709FD002800F0B4801AA3D3E946
:1022D0000023DDE90601FFF7D7FC002800F0AA8003
:1022E0001C9B53453ADDA3EB0A0A0AF1FF331C930A
:1022F00036E04FF00508D6E7FB799F501344D33FF3
:10230000B3C8608B288AC63F61436F63A787D23FFB
:1023100071A379094F930A401655B5BBB16B0240C2
:10232000EF39FAFE422EE63F0000000000000000F8
:102330002D431CEBE2361A3F0000000080842E4142
:10234000FFFFEF7F0000F83F0000E03F00002C405F
:1023500000002440000018400000F03F00231C93C0
:102360001E9B43F480631E934FF00008C2461D9BE2
:10237000984569D2A3EB08091E9B13F0020B04D009
:10238000B8F1000F01D04FF00009BAF1000F07D0EB
:10239000DDE90823DDE90601FFF7C0FBCDE9060111
:1023A00000220023DDE91A01FFF76EFC00284ED160
:1023B0001E9B23F400630493CDF80C901C9B0293A6
:1023C0009DED067B8DED007B33463A46294620463F
:1023D00000F056F8B8F1000F3FF44FAF1E9B13F01A
:1023E000200F3CD04FF0450C00F101093346024666
:1023F00029466046A0478AEAEA72A2EBEA72052300
:10240000059308F1FF330493002303930A230293F7
:102410004FEADA730193009233464A462946204632
:10242000FFF773FDBBF1000F3FF427AF0246DDF865
:1024300074901EE01C9B002B99D00D9B002B96D016
:102440001C9B013B1C9392E74FF0000994E7DDE9E8
:102450000601024601F10043CDE90623A8E74FF04B
:10246000650CC1E702F10108334629462020A04748
:102470004246D31B4B45F5D31046FEE60000000054
:102480002DE9F04F2DED028B95B007900A91924601
:102490009B46DDE92089229D42464B4640464946FF
:1024A000FFF7E0FB002835D14FF0FF326FF48013C7
:1024B00040464946FFF7E8FB00283AD14FF0FF328B
:1024C0009F4B40464946FFF71BFC002840D198A38C
:1024D000D3E9002340464946FFF712FC00284FD1BC
:1024E00095A3D3E9002340464946FFF7CDFB0028DA
:1024F00046D10022002340464946FFF7C5FB00288D
:102500004CD100230B93249B13F4806F00F0B78011
:10251000002456E0249B0393239B029303230193FF
:10252000884B00935B4652460A990798FFF713FCC5
:1025300037E1249B0393239B029304230193824B53
:1025400000935B4652460A990798FFF704FC28E17E
:10255000249B13F004030FD07C4A7BB104232499FD
:10256000039123990291019300925B4652460A9986
:102570000798FFF7F0FB14E1754AEEE70323EEE757
:10258000249B0493239B03930295CDE900895B462A
:1025900052460A990798FFF763FD02E142464B460F
:1025A00000200021FFF780FA8046894601230B9323
:1025B000A9E704F150036B44302203F8202C013DBD
:1025C00001341F2C01D8092DF3D840464946FFF7A6
:1025D00025FB0646FFF7FEFA02460B4640464946F3
:1025E000FFF762FA5B4B03EBC50393ED008B53ECF3
:1025F000182BFFF76DFA02460B46CDE90823FFF7CB
:102600001FFB0746FFF7F8FA02460B46DDE9080113
:10261000FFF74AFA02460B46CDE9082300224E4B4B
:10262000FFF76EFB68B301373846FFF7E5FA02465D
:102630000B4651EC180BFFF73BFB08B101360027A6
:102640006DBB3046FFF7C6FA02460B464046494688
:10265000FFF72AFA0746884600223F4BFFF714FB94
:1026600000284CD100223C4B38464146FFF748FB3E
:10267000002844D116F0010F41D001363FE0062575
:1026800046E70022344BDDE90801FFF7FDFA002898
:10269000D6D117B117F0010FD2D00137D0E71F2CD8
:1026A00017D8013D2D4BA3FB0723DB08194603EB8D
:1026B0008303A7EB4303621C303304F150000DEB9E
:1026C000000404F8203C092F02D90F461446E6E71F
:1026D00014461F2C0AD86B1E45B104F150026A44FF
:1026E000302102F8201C1D460134F2E71F2C06D8C9
:1026F00004F150036B442E2203F8202C01341F2CCC
:1027000031D8174A82FB0632F317C3EBA2031A46ED
:1027100003EB8303A6EB4303611C303304F1500049
:102720000DEB000404F8203C1646DAB10C46E6E74F
:102730000000000065CDCD410000000065CDCDC199
:10274000FFFFEF7FE8680010EC680010DC68001005
:10275000E4680010786D00100000E03FCDCCCCCCD8
:10276000676666660C46249B03F00303012B1DD0AD
:102770001F2C09D80B9B002B35D004F150036B4460
:102780002D2203F8202C0134249B0393239B0293D6
:1027900001940CAB00935B4652460A990798FFF7E9
:1027A000DAFA15B0BDEC028BBDE8F08F239BB3B114
:1027B0000B9B1BB9249B13F00C0F12D0239B013BE6
:1027C0002393194606E004F150036B44302203F8CA
:1027D000202C01348C42CBD21F2CF4D9C8E723998A
:1027E000F8E72399F6E7249B13F0040F07D004F1D0
:1027F00050036B442B2203F8202C0134C4E7249BA4
:1028000013F0080FC0D004F150036B44202203F8EA
:10281000202C0134B8E700BF2DE9F04F91B080467D
:1028200017460F938946002900F04B8300260F9B23
:102830001878002800F04883252809D0741C3B46EE
:1028400032464946C0470F9B01330F932646EEE7B9
:1028500001330F9300251FE045F0010501320F926F
:10286000012318E045F0020501320F92012312E026
:1028700045F0040501320F9201230CE045F00805F4
:1028800001320F92012306E045F0100501320F924C
:10289000012300E000234BB30F9A1378203B102B49
:1028A000F8D801A151F823F07D28001095280010D8
:1028B00095280010892800109528001095280010F0
:1028C00095280010952800109528001095280010D4
:1028D0009528001071280010952800106528001018
:1028E0009528001095280010592800100B930F9B75
:1028F0001A78A2F13003DBB2092B18D92A2A1BD08F
:10290000DDF82CB00F9B1A782E2A25D00F9A137859
:10291000683B122B5CD8DFE803F0495BAC5B3B5BA8
:102920005B5B5B5B5B5B575B5B5B5B5BB1000FA8FF
:10293000FFF7FEF98346E5E71A9B1A1D1A921B68FA
:10294000002B04DB9B460F9B01330F93DAE745F026
:102950000205C3F1000BF6E745F480655A1C0F929F
:102960005A78A2F13003DBB2092B0CD92A2ACDD137
:102970001A9B1A1D1A921C6824EAE4730B930F9B8E
:1029800001330F93C2E70FA8FFF7D2F90B90BDE711
:1029900045F48071531C0F9353786C2B01D00D4676
:1029A00016E045F4407502320F9211E045F08001C7
:1029B000531C0F935378682B01D00D4608E045F067
:1029C000C00502320F9203E045F4807501320F9288
:1029D0000F9B1878672856D82528C0F06882A0F188
:1029E0002503422B00F26382DFE813F056026102F6
:1029F00061026102610261026102610261026102BF
:102A000061026102610261026102610261026102AE
:102A1000610261026102610261026102610261029E
:102A20006102610261026102610261028801680162
:102A30008801610261026102610261026102610258
:102A4000610261026102610261026102610261026E
:102A50006102710061026102610261026102610250
:102A60006102610261027100AF01710088016801B9
:102A7000880145F4007501320F92A9E745F480758D
:102A800001320F92A4E7782800F211826928C0F081
:102A90000E82A0F16902D2B20123934049F24102B1
:102AA000134214D113F0800F40F0DB8113F4806FD8
:102AB00000F0FD811A9B1A1D1A92D3F800A00B9BFF
:102AC000002B40F090814FF0FF32534671E16F28A8
:102AD0000CD005D858283CD0622803D1022306E048
:102AE000782838D025F010050A2300E0082358285C
:102AF00033D0692803D0642801D025F00C0515F4E3
:102B0000806F01D025F00105692829D0642827D0DD
:102B100015F4007F40F0948015F4807F40F0AC8085
:102B200015F0400F00F0BD801A9A111D1A9112780D
:102B30000595CDF810B00B990391029300230193F2
:102B400000923B46324649464046FFF7DEF90646CC
:102B500027E01023CBE71023C9E745F02005C8E79D
:102B600015F4007F21D115F4807F42D115F0400F7C
:102B700058D01A9A111D1A91127882EAE271A1EBCB
:102B8000E2710595CDF810B00B9803900293D20F27
:102B9000019200913B46324649464046FFF7B5F95F
:102BA00006460F9B01330F9341E61A9A073222F033
:102BB000070202F108011A915168126808460029BB
:102BC00013DB0895CDF81CB00B9C069404930023EE
:102BD0000593C90F0291009201903B463246494647
:102BE0004046FFF7DCF90646DBE7524261EB410065
:102BF000E7E71A9A111D1A91126882EAE271A1EBB5
:102C0000E2710595CDF810B00B9803900293D20FA6
:102C1000019200913B46324649464046FFF775F91E
:102C20000646BEE715F0800F05D01A9A111D1A91BD
:102C3000B2F90020A1E71A9A111D1A9112689CE7B7
:102C40001A9A073222F0070202F108011A91089538
:102C5000CDF81CB00B9906910021049305910291C7
:102C6000D2E90023CDE900233B463246494640469F
:102C7000FFF795F9064694E71A9A111D1A910595E2
:102C8000CDF810B00B9903910293002301931368C0
:102C900000933B46324649464046FFF736F9064622
:102CA0007FE715F0800F04D01A9A111D1A9112882F
:102CB0003EE71A9A111D1A91126839E746281AD070
:102CC0001A9B073323F0070303F108021A920495B5
:102CD000CDF80CB00B9A0292D3E90023CDE9002382
:102CE0003B46324649464046FFF7CAFB06460F9B25
:102CF00001330F939BE545F02005E1E7672801D0FC
:102D0000472801D145F40065452801D0472801D165
:102D100045F020051A9B073323F0070303F108024F
:102D20001A920495CDF80CB00B9A0292D3E90023C5
:102D3000CDE900233B46324649464046FFF790F92D
:102D400006460F9B01330F9371E515F002051DD068
:102D500001241A98031D1A9306F1010A3B463246D4
:102D600049460078C047A5B90F9B01330F935646DB
:102D70005DE502F1010A3B4649462020C047234653
:102D800052465C1C9B45F4D81646E2E701233246C6
:102D9000F7E7524606E0561C3B4649462020C0470E
:102DA0002C463246651CA345F5D89246DCE7013334
:102DB0000A46197811B1511E002AF8D1A3EB0A0373
:102DC00015F480620C9203D00B9A934228BF1346ED
:102DD00015F0020409D00D94CDF838B00B9D3246A1
:102DE0000C9E9B461FE00B9A6FE63246264606E095
:102DF000541C3B4649462020C0472B4622465D1CBA
:102E00009B45F5D834462B460D94CDF838B00B9D34
:102E10000C9E9B4607E01D460AF1010A541C3B46E6
:102E20004946C04722469AF8000020B1002EF3D050
:102E30006B1E002DEFD10D9C16465B46DDF838B0B9
:102E400054B90F9B01330F93F1E4551C3B4649469F
:102E50002020C04723462A465C1C9B45F5D81646D1
:102E6000EFE745F021051A9B1A1D1A921B6805957C
:102E7000082204920B9A03921022029200220192DD
:102E800000933B46324649464046FFF73EF8064629
:102E90000F9B01330F93CAE4741C3B4632464946EC
:102EA0002520C0470F9B01330F932646BFE4741CB7
:102EB0003B4632464946C0470F9B01330F93264697
:102EC000B5E4DFF82080B1E4BE4208D37A1E3B4669
:102ED00049460020C047304611B0BDE8F08F324669
:102EE000F5E700BF211D001000B585B002900391E9
:102EF000009313464FF0FF3202A90348FFF78CFC02
:102F000005B05DF804FB00BF231D001000BEFDE707
:102F100008B5FFF7FBFF000000B583B08C461946EB
:102F20005AB11446064B0194009363460246054885
:102F300000F052F90120FFF7E9FF034B1C46F2E7CE
:102F4000F468001004690010F062001010B5EFF38F
:102F50000583DBB203B100BEFEF788FC044C02E03F
:102F600054F8043B9847034B9C42F9D310BD00BF73
:102F7000A0620010A862001008B5034608461B684E
:102F80001146984708BD0000F8B507460D4616469D
:102F9000437D13B1002420460CE003681146284607
:102FA00098472EE03B7D10E03B680221154898478A
:102FB000601C0134B44214DA002CF3DD2B1913F831
:102FC000013C0D2B14BF002301232A5D0A2AF0D1F6
:102FD000002BEED1A042E7DA3B68211A284498473B
:102FE000E2E7B04203DA3B68311A28449847002EE2
:102FF00007DD354415F8013C0D2B14BF00230123D8
:103000003B75F8BDC86D001038B50368BBB1054607
:103010000B4B1C6806E0294651F8042B2046FFF7AD
:10302000B3FF24694CB12368002BFAD0054B1B6811
:10303000002BF0D0A342F4D1EDE700232B6038BD84
:103040003C1A0020441A002038B505460C460B688F
:10305000802B05D023685A1C22601C44257138BD82
:103060000846FFF7D1FFF5E708B5FEF7A1F9074AD3
:10307000821841F10003002B03DB054803F0E0F860
:1030800008BD4FF0FF326FF00043F6E740420F00FB
:103090001411002008B5024803F0CAF808BD00BFAB
:1030A000141100202DE9F04383B006460D469046EA
:1030B0001C46FFF7D9FF8146B5F1FF3F04D044B16C
:1030C000174F184B1C6807E0304603F061F80546BF
:1030D000F5E7154FF5E72469BCB12368002BFAD05A
:1030E000124B1B680BB1A342F5D12A46314620464C
:1030F000B847B8F1000FEED00A238DF8073001224F
:103100000DF107012046B847E5E7B9F1000F03D1FB
:10311000284603B0BDE8F083FFF7BCFFF8E700BF27
:10312000892F00103C1A0020792F0010441A00202B
:10313000084A01E003F1100213683BB18342F9D160
:1031400031B90369136000230361704701B1106056
:10315000704700BF3C1A002010B5054B1C6801E009
:10316000984724691CB16368002BF9D1F9E710BDB9
:103170003C1A002008B500F0A9F908BD38B505468D
:1031800003F006F8044601231A4601462846FFF7D5
:1031900089FFFFF7E1FF204638BD000070B5A2B0FF
:1031A00004460E46FFF760FF0546002301933346B1
:1031B000224601A90748FFF797FE044601A8FFF73A
:1031C00023FFFFF7C9FF15B9204622B070BDFFF7F6
:1031D00061FFF9E7493000100FB400B583B004A9CE
:1031E00051F8040B0191FFF7D9FF03B05DF804EB30
:1031F00004B0704770470000014B00221A707047FE
:10320000B91E00204B79FF2B0BD18B795BB9CB79A1
:10321000012B0AD1082A0AD98A78064B1A7009208C
:103220007047002070470020704700207047002042
:10323000704700BFB91E002001207047012923D12B
:1032400008B59188114B1B78994201D0002008BD28
:103250005378012B03D0022B0FD00020F7E75188C1
:1032600011F4807F06D0480AC1F3402201F07F01AB
:10327000FEF7ABFA4FF0FF30F6E764220021084674
:10328000FEF744FA0120E2E701207047B91E002052
:1032900000487047946E001001290FD108B594467C
:1032A0005378012B0CD19388072B01D0002008E024
:1032B000A623044A614601F0C9FB02E001207047E1
:1032C000002008BDEC6D001001230370004870471A
:1032D000CC6D001008B50B68B3F5966F00D008BD33
:1032E000002211464FF0FF30FEF76FFA0368EFF34C
:1032F000108272B6D3E8CFCF0121BCF1000FF9D113
:10330000C3E84C1FBCF1000FF4D1BFF35F8F4260E4
:1033100070470000024B1860024B1960704700BFF5
:10332000DC190020E019002008B5FEF741F80E4A2C
:10333000821841F10003002B11DB0C4802F080FFE2
:1033400060B100214FF0FF3001F014FA002001F0CD
:10335000F3FC0028F5D1054802F06AFF08BD4FF0E4
:10336000FF326FF00043E8E740420F009C1E002050
:1033700038B5124B1B68C3B1104C2046FFF7B6FF9F
:1033800000230F4A137021686268C1E88F3F82F3FF
:103390001088002400250B4B1878FDF753F940B92D
:1033A000002400252046294638BD4FF47A740025B4
:1033B000F1E7044B1878FDF76FF9F3E7681E00207A
:1033C000BB1E0020BA1E002008B5024B1878FDF77E
:1033D00063F908BDBA1E002070B584B006461446D5
:1033E0001D46FDF7E5FF221845EB0103002B0BDB23
:1033F0009DF8281002910999019108990091304691
:10340000FDF716FE04B070BD4FF0FF326FF00043C1
:10341000EEE7F0B585B005460C4616461F46FDF7AB
:1034200093FD9DF828300293019700962A46234683
:10343000FFF7D2FF05B0F0BD10B582B000211D48E6
:1034400002F006FFB0B91C4B1B688BB11A4C20462A
:10345000FFF74CFF194A137883F001030121117023
:10346000206862680021C0E88F1F82F31088BBB912
:1034700002B010BD00214FF0FF3001F07BF90020B9
:1034800001F030FC04460B4802F0D2FE002CEFD0D5
:103490000B4B1B68002BEBD00A4A10689847E7E7F4
:1034A000012300930B46084A4FF47A700021FFF77E
:1034B000B0FFDDE79C1E0020681E0020BB1E002020
:1034C000DC190020E01900207133001010B582B023
:1034D0004FF050431C68FDF737FDFDF719FEA04281
:1034E0002BD1234B1B7802F0CFF8224B1B6853B330
:1034F0000120FDF7BBFAC0B21F4C20701F49FDF739
:10350000EFF801212078FDF7BDF80E20FDF7D8F87F
:103510000446E0B10120FDF70BF801461848FDF71D
:1035200003FB002217490E20FDF70AF90121164876
:10353000FFF7FEFD204602B010BD144B144AC12116
:103540001448FFF7E9FC0B48FDF7ACFAD0E70C4A4A
:10355000002313605360012200920F4A4FF47A70E7
:103560000021FFF756FFC443E40F002CE2D0DDE753
:103570000C7200109C1E0020BA1E0020393400106E
:10358000681E0020C9330010DC10002034690010D0
:10359000C46E00103C6900107133001008B50020A3
:1035A00001F084FB08BD000038B504460D46FFF766
:1035B000F5FF90B3002001F095FB88B3FDF7F8FE0E
:1035C0001A4A821841F10003002B16DB184802F05A
:1035D00037FE40B3FFF7E2FF18B1002001F082FB95
:1035E00080B900214FF0FF3001F0C4F86FF0020401
:1035F0000F4802F01DFE204638BD4FF0FF326FF03D
:103600000043E3E72A462146002001F079FB044607
:103610000028EDD16FF00204EAE76FF00204EAE758
:103620006FF00204E7E76FF00204E4E740420F00A6
:103630009C1E0020F8B507460D46FDF7B9FE2E4A40
:10364000821841F10003002B04DB2C4802F0F8FD46
:1036500028B9F8BD4FF0FF326FF00043F5E7FFF7F0
:103660009DFF002845D1264B00200021C3E9000121
:10367000224802F0DDFDECE700214FF0FF3001F0C1
:1036800079F8002001F058FBFFF788FF0028EFD001
:10369000002001F0DDFBF8B1AC42E9DA2E1B00207E
:1036A00001F0D6FB864200DC30460028E4D002461A
:1036B0003919002001F0A8FB064600214FF0FF3029
:1036C00001F058F8002001F037FB3444FDF770FE9C
:1036D0000B4BC3E90001DFE7FDF76AFE084A1368F8
:1036E0005268084E9B1942F1000283428A41D3D2AC
:1036F000BEE70024D0E700BF40420F009C1E002020
:10370000A012002020A1070000487047406F001061
:1037100000487047EC6E001010B50446144B1B783F
:103720006BB18CB9134B40F209425A80012301332B
:103730005B009BB20F4843F44073038010BD11211E
:103740000B4800F047F8ECE7052C0ED80A4B53F86D
:1037500024000023122BEAD8C25C002AE7D00133F0
:10376000044921F81320DBB2F4E70020E6E700BFAC
:10377000A41E0020141A0020D46E001000B58BB0D7
:1037800045F24730FEF712F803460122092101A84D
:103790009847042801D100230EE00A4B0A4A292148
:1037A0000A48FFF7B9FBC3F10F0228326A4412F846
:1037B000241C074AD1540133072BF4DD0BB05DF80C
:1037C00004FB00BFC4690010746F0010CC690010C6
:1037D000901E002008B511B18C4600220AE0114B62
:1037E000114A35211148FFF797FB00210FE03733CD
:1037F000835401320CF1FF3393420FD90F2A0DD8B5
:1038000053080B49CB5C12F0010FEED104210B41A0
:1038100003F00F03092BEADC3033E9E7002383547C
:1038200008BD00BF146A0010546F0010CC6900106E
:10383000901E002010B5038B3F3323F03F03022975
:1038400019D0144C2268C2601344236013F03F0F58
:1038500013D182F0A04282F4801283F0A04383F45B
:103860008013B3F5805F0ED842EA816242F00042D5
:1038700043681A6010BD5B00E3E7074B074A51211C
:103880000748FFF749FB074B044A53210448FFF759
:1038900043FB00BF4C1E00201C6A0010D06F0010BC
:1038A0004C6A0010A46A001038B5034600F07F048B
:1038B0004FEA440C0CEBD01C224800EB4C108370F8
:1038C000DB090CBF0125002545700025C57001836B
:1038D000C276C3B9E1001C4D0D4403EB440C1949F9
:1038E00001EB4C118D6003EB440C164901EB4C11BC
:1038F000896800250D605CB9124A02EB4C135D60CB
:10390000124ADA6038BD124D05EBC4058560EAE75E
:103910006BB9611EC9000F4D0D4403EB4403094907
:1039200001EB43135D601146FFF784FFEAE7611E78
:10393000094D05EBC10503EB4403024901EB4313B9
:103940005D60F0E7481A002084001050000110501C
:10395000800010500C0010500800105008B500F006
:103960007F035B0003EBD010024B03EB401000F031
:1039700023F908BD481A002008B520B901210E20FE
:10398000FCF780FE08BD034B034A4FF4D471034893
:10399000FFF7C2FAEC6A0010C06F00104C6A00100A
:1039A00008B528B9002211468020FFF7D7FF08BDCF
:1039B000034B044A4FF4D9710348FFF7ADFA00BF37
:1039C000EC6A0010B06F00104C6A0010024B4FF40C
:1039D0008032DA64704700BF0020115070B540BBE0
:1039E000064600F0C9F8164C0C23A367FF221549C0
:1039F0000E20FCF7A5FE40252A460021124802F0C1
:103A0000FFFA002229461046FFF74EFF0022294602
:103A10008020FFF749FF02F0EFFB012323644FF002
:103A20000053E364094BC4F890303046FFF7CEFFF3
:103A300070BD074B074A40F275110748FFF76CFA53
:103A400000001150DD050020481A002010D00100B0
:103A5000EC6A0010E46F00104C6A0010044B1970FF
:103A600021B1044B4FF40032C3F89020704700BFDF
:103A7000B61E0020002011500B7813F07F0F02D1EA
:103A80004B78052B00D070474B88DBB2014A13609E
:103A9000F9E700BF0000115008B558B90B468988F6
:103AA000DA7802F00302C1F30A019878FFF7FCFE0E
:103AB000012008BD034B044A40F2EF110348FFF711
:103AC0002BFA00BFEC6A0010A06F00104C6A0010C7
:103AD00008B502F091FB08BD10B530B90846114693
:103AE0001A46FFF73BFF012010BD034B034A4FF47A
:103AF000FE710348FFF710FAEC6A0010906F001097
:103B00004C6A001008B511F07F0304D1CA090ED128
:103B10000220084A90665B0003EBD1134FF4006269
:103B20000021054800EB431002F086FB08BD012090
:103B3000EFE700BF00201150481A002008B511F02F
:103B40007F0300D108BD5B0003EBD113044800EBF9
:103B500043100022C2706FF4006102F06DFBF1E7C8
:103B6000481A002004E011F8012B00F8012B1A4636
:103B7000531E002AF7D1704708B54FF080530A4A08
:103B8000136002F580521360084B9B6813F0805F4E
:103B9000FAD04FF480520021054802F031FA054B6B
:103BA00009225A6708BD00BF002002400000024001
:103BB000000010500000115070B504460D46164626
:103BC000837EABB9A6820023E3820123A37625611D
:103BD000204602F025FB20B10B4B4FF40032C3F816
:103BE0009020204602F030FB50B10123237770BDB6
:103BF00081780648FFF7F0FA204602F0F9FAE1E78B
:103C0000204602F005FBF2E700201150D86B0010AF
:103C10000368EFF3108272B6D3E8CFCF0121BCF175
:103C2000000FF9D1C3E84C1FBCF1000FF4D1BFF372
:103C30005F8F42607047000038B50546002408E0F9
:103C4000D21A1B4B03EB4213DB682846984701341A
:103C5000E4B2184B1B782246591CA14215DBA34243
:103C6000EED9154B1B6813EB4413EDD140F216222D
:103C700012491348FFF7B0FA4FF0E023D3F8F03DB4
:103C800013F0010F13D000BE11E00E4C542200219E
:103C9000204602F0B5F94FF0FF336360A360E360A4
:103CA00023612022FF2104F1140002F0A9F938BD9C
:103CB000B4700010B51E0020A812002084700010FF
:103CC000106C0010F415002008B5FFF7B5FF00F0E8
:103CD00013FF08BD70B505460C461646486900F04E
:103CE00015FF6369324601212846984770BD0000E0
:103CF0002DE9F04F83B08246481EC0B2FFF708FDA1
:103D000020B1834643780193022B11D040F2C73291
:103D100062496348FFF760FA4FF0E023D3F8F03DC3
:103D200013F0010F00D000BE002003B0BDE8F08FFB
:103D3000C279C2F340105B4B197860F3041119701B
:103D4000C2F38012C9B262F3451119700BF1090870
:103D5000BBF802309B447BE098F8033098F80020D1
:103D600090447DE040F2E2324C494D48FFF734FA8E
:103D70004FF0E023D3F8F03D13F0010F00D000BE68
:103D80000020D2E7F31A484A02EB4319D9F8103061
:103D90002A46414650469847082801D985421ED2F6
:103DA0000134E4B2414B1B7826465A1CA2424ADB3E
:103DB000A342E7D93E4B1B6813EB4419E6D140F20E
:103DC000EB3236493648FFF707FA4FF0E023D3F8D5
:103DD000F03D13F0010F00D000BE0020A5E73B46E8
:103DE0004F468146012B11D000218B4224D998F8EF
:103DF00002200A44D2B22B4810440079FF280BD18C
:103E00002848024414710131C9B2EEE73969294AE0
:103E10009142E9D1019BE7E740F20A421F4920485D
:103E2000FFF7DAF94FF0E023D3F8F03D13F0010F7C
:103E300000D000BE002078E723464A4641461E488F
:103E400001F0F2FCC844194B1B7801339E4212DC8E
:103E5000D84520D298F801300B2B3FF47DAF0123D9
:103E600098F80120042A7FF47DAFABEB0805ADB2D2
:103E700000241F4696E740F2194208490848FFF718
:103E8000ABF94FF0E023D3F8F03D13F0010F00D071
:103E900000BE002049E7012047E700BF587000102E
:103EA000106C0010F4150020B4700010B51E002036
:103EB000A8120020E54F0010081600207047704738
:103EC000002070470020704738B505460C464B88E7
:103ED0001A0AD8B2531E0E2B64D8DFE803F0082D5F
:103EE0004E6363592D636363636363632200FFF76B
:103EF0000BFC024628B112232146284600F0A6FDFD
:103F000051E040F22B422C492C48FFF765F94FF065
:103F1000E023D3F8F03D13F0010F00D000BE0020E5
:103F200041E0FFF7B5F9024600283DD0438821461D
:103F3000284600F08BFD36E0022A09D0FFF7C2FFC9
:103F4000024698B353882146284600F07FFD2AE0B8
:103F5000FFF7DEFB02460028F4D140F25242164938
:103F60001648FFF739F94FF0E023D3F8F03D13F08E
:103F7000010F00D000BE002015E0A188FFF7CCFBA8
:103F80000246A8B103782146284600F05FFD0AE00A
:103F9000FFF796FF024668B103782146284600F0F5
:103FA00055FD00E0002038BD0020FCE70020FAE7C6
:103FB0000020F8E70020F6E740700010106C0010B9
:103FC0007047704770477047024B5878003818BFE9
:103FD00001207047F4150020024B1878C0F38000D0
:103FE000704700BFF4150020024B1878FF3818BF47
:103FF000012070471011002070B50546FFF7F4FF4F
:10400000064608B1304670BD54220021264801F012
:10401000F7FF264B00221A70254C2046FCF742FD84
:10402000244B1C60244C2046FCF786FD143C2046A3
:1040300001F0ADFF214B1C60214B23B12148FFF75C
:1040400043F9214B1860002408E0D21A1F4B03EB00
:1040500042135B687BB198470134E4B2194B1B787B
:104060002246591CA14215DBA342EED9164B1B6810
:1040700013EB4413EDD14FF4F17215491548FFF7D6
:10408000ABF84FF0E023D3F8F03D13F0010FB9D0B7
:1040900000BEB7E7104B1D702846FFF79FFC28466F
:1040A000FFF76AFC0126ADE7F4150020B71E0020DB
:1040B000AC15002048160020081100204C160020E6
:1040C000C9320010B51E0020A8120020B4700010E4
:1040D000A8700010106C00101011002070B51A4B61
:1040E0001E788B7813F0700F0ED10C46174B997811
:1040F000204601F029FB0546B0B121463046FFF7C6
:10410000CBFC0546284670BD40F2FC4210491148E0
:10411000FFF762F84FF0E023D3F8F03D13F0010F02
:1041200000D000BE0025EDE740F2FD4208490948F5
:10413000FFF752F84FF0E023D3F8F03D13F0010FF2
:10414000E0D000BEDEE700BF10110020F415002013
:1041500010700010106C00102DE9F84F80460C46CE
:1041600016461F46DDF82890DDF82CA0002526E035
:104170004FF49B621F492048FFF72EF84FF0E023D1
:10418000D3F8F03D13F0010F00D000BE4FF0000B4C
:104190005846BDE8F88F40F2D94216491648FFF755
:1041A0001BF84FF0E023D3F8F03D13F0010FEFD0F0
:1041B00000BEEDE78AF8003023781C440135AE429A
:1041C00014DD6378052BD3D1E17801F00301B94206
:1041D000CED121464046FFF781FF83460028DAD042
:1041E000A378DA09E6D189F80030E5E74FF0010B52
:1041F000CEE700BF20700010106C001008B501F071
:104200007F00400000EBD1103030044B1844044BC9
:104210001968043001F052FA08BD00BFF4150020FF
:104220004816002008B501F07F00400000EBD110D7
:104230003030044B1844044B1968043001F066FA1E
:1042400008BD00BFF41500204816002070B51F48B7
:10425000007801F07F051E4C04EB450C0CEBD11CE3
:104260009CF8344014F0010F1FD1CE09184C04EB18
:104270004504344494F834C04CF0010C84F834C044
:104280003034FFF729FCF8B9227922F001022271BB
:10429000227922F0040222714FF0E023D3F8F03D9E
:1042A00013F0010F10D000BE0EE040F22A5209496F
:1042B0000948FEF791FF4FF0E023D3F8F03D13F0EB
:1042C000010F00D000BE002070BD00BF1011002003
:1042D000F415002000700010106C001038B501F0CB
:1042E0007F05CC090A4B1878FFF70CFC094B03EB50
:1042F0004503234493F8342042F0020283F834202B
:1043000093F8342042F0010283F8342038BD00BF16
:1043100010110020F415002038B501F07F05CC09FC
:104320000A4B1878FFF70AFC094B03EB45032344BB
:1043300093F8342022F0020283F8342093F83420DA
:1043400022F0010283F8342038BD00BF1011002094
:10435000F415002001F07F02044B03EB420303EB52
:10436000D11191F83400C0F340007047F4150020DB
:104370002DE9F04182B006460C46002000F0C6FB55
:10438000237803F06003602B21D0402B32D02278B9
:1043900002F01F02012A00F00281022A00F043818C
:1043A000002A40F0C981202B2ED0002B4DD16378FC
:1043B000092B00F2E980DFE813F0D400C400E70025
:1043C000B400E7005200AE00E70061006E0040F26A
:1043D000C522B249B248FEF7FFFE4FF0E023D3F802
:1043E000F03D13F0010F00D000BE0025284602B0BA
:1043F000BDE8F081AB4800F089FB22460121304640
:10440000FEF74AFF0546F1E7A388DBB20F2B00F267
:104410009D81A54A13441B79A44A1278934206D27F
:10442000A34A116811EB431109D10025DEE7511CA5
:104430009942C0F28D819B1A9E4901EB431122469D
:104440003046FFF747FC0546D0E74FF0E023D3F8AE
:10445000F03D13F0010F00D000BE0025C6E7204656
:1044600000F05AFB6188C9B23046FFF799FA8E4ACC
:10447000137843F0020313700125B7E78A4B5B788A
:104480008DF8063001230DF106022146304600F07A
:10449000DDFA0125AAE76588EDB2834B5B78DBB2D4
:1044A000AB4232D0804B5B785BB97F4B5D7055B3CC
:1044B00029463046FFF71CFC054690B1FFF780FD0A
:1044C00023E000213046FFF7C9FA3046FFF700FB32
:1044D000754F97F802803046FFF7AEFB87F80280F1
:1044E000E3E740F215326D496D48FEF775FE4FF077
:1044F000E023D3F8F03D13F0010F00D000BE6A4B6B
:1045000000225A7072E7FFF75CFD2146304600F04A
:1045100089FA01256AE721463046FFF7D5FC0546B2
:1045200064E76388012B01D000255FE75E4A1378BA
:1045300043F0080313702146304600F073FA01255A
:1045400054E76388012B01D000254FE7564A1378C2
:1045500023F0080313702146304600F063FA01256A
:1045600044E7514B1B789A08C3F3401302F0020250
:104570001343ADF8063002230DF106022146304602
:1045800000F064FA012531E74FF0E023D3F8F03D65
:1045900013F0010F00F0DE8000BE002526E7A3889F
:1045A000DBB20F2B00F2D8803F4A13441B793F4AFD
:1045B0001278934222D23E4A116811EB431100F067
:1045C000CD8022463046FFF785FB054600287FF464
:1045D0000DAF237813F0600F7FF408AF63780A3BC8
:1045E000012B3FF603AF00F091FA63780A2B0ED04F
:1045F0002146304600F016FA0125F7E6511C994293
:10460000C0F2AE809B1A2B4901EB4311D9E700237E
:104610008DF8063001230DF106022146304600F0E8
:1046200015FA0125E2E6A288D1B202F07F05C2F3B5
:10463000C01012F0700F17D11B4A02EB4502024462
:10464000127D1A48007882421ED21948056805EB8F
:1046500042158BB3002D00F0858022462946304656
:10466000FFF738FB0546C1E640F286320B490C489D
:10467000FEF7B2FD4FF0E023D3F8F03D13F0010F49
:1046800000D000BE0025B1E6451C954204DB121A9D
:10469000084D05EB4215DCE70025DAE76C700010E9
:1046A000106C001099320010F4150020B51E002087
:1046B000A8120020B47000106378012B10D0032BD7
:1046C0000ED07BBB3046FFF745FEADF80600022357
:1046D0000DF106022146304600F0B8F9012585E6C5
:1046E000628822B9012B19D03046FFF7F7FD002D63
:1046F0003AD0224629463046FFF7ECFA002000F077
:1047000005FA1B4B93F8355015F001057FF46EAE9A
:104710002146304600F086F9012567E63046FFF76E
:10472000FBFDE4E74FF0E023D3F8F03D13F0010F79
:1047300000D000BE002559E64FF0E023D3F8F03D4D
:1047400013F0010F12D000BE00254FE600254DE604
:1047500000254BE6002549E6002547E6002545E60D
:10476000002543E6002541E601253FE600253DE61C
:10477000F415002010B584B0FFF736FC48B904B03A
:1047800010BD9DF80400FFF79FFA9DF808207F4BAD
:104790009A707F4B1C6804F11400FFF739FA01A9E5
:1047A000204601F09CFB6169A3690022C1E88F2FBC
:1047B00083F310880028E2D09DF80530013B072BD9
:1047C00000F2DA8001A252F823F000BF8347001004
:1047D000ED470010654900102B49001045490010B5
:1047E000FB47001091480010574900109DF8040045
:1047F000FFF76AFAFFF7E5FBCBE7664B1B78002B68
:1048000036D0644A1378013BDBB213701378002B67
:10481000BFD15E4B1A7842F001021A7093F834202F
:1048200022F0010283F8342093F8342022F00402AD
:1048300083F8342093F8352022F0010283F83520E4
:1048400093F8352022F0040283F8352002A99DF860
:104850000400FFF78DFD00289BD100219DF8040086
:10486000FFF750F980219DF80400FFF74BF990E71E
:1048700040F2562248494948FEF7AEFC4FF0E0238B
:10488000D3F8F03D13F0010F3FF479AF00BE76E7A7
:104890009DF8081001F07F00CC093C4B03EB40036E
:1048A00003EBD11393F8342022F0010283F8342073
:1048B00093F8342022F0040283F83420A8B1334B5B
:1048C00003EB400323441B7D354A1278934214D2F4
:1048D000344A126812EB431317D09C69039B9DF86E
:1048E00009209DF80400A04753E7039B9DF8092089
:1048F0009DF8040000F01EF94BE7501C984204DBC1
:104900009B1A294A02EB4313E7E740F2812222492E
:104910002248FEF761FC4FF0E023D3F8F03D13F09E
:10492000010F3FF42CAF00BE29E7184B1B7813F0A2
:10493000010F3FF42EAF154B1878C0F3C000FFF7FE
:1049400041FB26E7114B1B7813F0010F3FF421AF19
:10495000FFF739FB1DE7029B002B3FF41AAF0398CA
:10496000984716E7094BDB7813F0010F3FF411AFBE
:104970000298FFF7A4FA0CE74FF0E023D3F8F03DDC
:1049800013F0010F3FF405AF00BE02E7F41500205D
:104990004C160020B71E002098700010106C0010FC
:1049A000B51E0020A8120020B470001008B591F9BF
:1049B0000030002B05DB802100231A46FFF746FC60
:1049C00008BD0021F8E70000F8B50746134B9E89A3
:1049D000DD89741BA4B2402C28BF402493F9003019
:1049E000002B08DB0021AE4213D00D4A2346384687
:1049F000FFF72CFCF8BDAE4209D0084B9968402C5B
:104A000009D82246064801F04DFB8021EBE78021C2
:104A1000E9E70022EAE70020ECE700BF7815002074
:104A2000B415002008B586460B46074A9446086828
:104A30004968ACE8030000219160D1819181194659
:104A40007046FFF7B3FF08BD7815002038B505465E
:104A50008C46264CA64608684968AEE80300A2606A
:104A60000021E181BCF806108B4228BF0B46A381D0
:104A7000BCF8061029B303B132B12846FFF7A4FFF2
:104A8000044680B1204638BD772219491948FEF7FF
:104A9000A3FB4FF0E023D3F8F03D13F0010F00D05B
:104AA00000BE0024EEE77D2211491248FEF794FB78
:104AB0004FF0E023D3F8F03D13F0010FE2D000BE39
:104AC000E0E761462846FFF771FF04460028D9D188
:104AD000802207490748FEF77FFB4FF0E023D3F819
:104AE000F03D13F0010FCDD000BECBE778150020CC
:104AF0000C710010106C0010034B00221A605A60F9
:104B00009A60DA601A61704778150020014B1861CD
:104B1000704700BF781500200146054B1A46006813
:104B2000496803C200229A60DA819A81704700BF07
:104B30007815002038B505461C463D4B1B78DB092F
:104B4000B3EBD11F1CD07CB1A7223A493A48FEF7FB
:104B500043FB4FF0E023D3F8F03D13F0010F00D0FA
:104B600000BE0024204638BD314C2146FEF784FFAC
:104B700023691BB122460321284698470124F1E707
:104B80002B4B93F90030002B07DB294B986800284A
:104B90004CD02246294901F085FA254AD38913FAD7
:104BA00084F39BB2D381916821449160D28893426F
:104BB00001D03F2C26D81E4B1B6923B11C4A022171
:104BC00028469847A0B11A492846FFF7EFFE044649
:104BD0000028C7D1D02217491748FEF7FDFA4FF039
:104BE000E023D3F8F03D13F0010FBBD000BEB9E7CE
:104BF00000212846FEF786FF80212846FEF782FF27
:104C00000124AFE72846FFF7DFFE04460028A9D1BC
:104C1000D82208490848FEF7DFFA4FF0E023D3F81E
:104C2000F03D13F0010F9DD000BE9BE7002499E7F3
:104C300078150020F4700010106C0010B4150020DE
:104C400038B50446FFF7C0F930B90023184613B150
:104C5000E37843B9002038BDFFF7BEF908B9012356
:104C6000F4E70023F2E704F11005284601F021F9EA
:104C70003F2801D80020EEE7E1780020FFF7BEFAD8
:104C80000028E8D0284601F014F93F2807D940232E
:104C900004F51272E1780020FFF7D8FADBE7E1783B
:104CA0000020FFF7BFFA0020D5E7000010B504464A
:104CB000FFF78AF908B9002010BDFFF78DF950B948
:104CC000074B4FF4327202FB04331B7913F0010FD0
:104CD00003D00120F0E70020EEE70020ECE700BF62
:104CE000B012002008B54FF4327303FB00F010300F
:104CF000024B184401F0ACF808BD00BFB012002010
:104D000038B54FF4327303FB00F00A4BC51810306E
:104D100018444FF6FE739A4208D892B201F0FEF89A
:104D200004462846FFF78CFF204638BD4FF6FF7239
:104D3000F4E700BFB012002070B50546FFF744F954
:104D400018B9002343B9002070BDFFF745F908B931
:104D50000123F7E70023F5E74FF4327405FB04F471
:104D60002034264B1C440434204601F071F808B965
:104D70000020E9E7214B4FF4327202FB05339978AA
:104D80000020FFF73BFA08B90020DDE74FF4327648
:104D900005FB06F606F52276184B1E4440223146E6
:104DA000204601F0BBF80446E0B114494FF43273D9
:104DB00003FB05110346324689780020FFF746FAC7
:104DC00008B12046C0E7CD220D490E48FEF704FA8F
:104DD0004FF0E023D3F8F03D13F0010F00D000BEF8
:104DE0000020B1E7054B4FF4327202FB053399788E
:104DF0000020FFF717FA0020A6E700BFB01200203E
:104E00003C710010106C001070B505464FF4327400
:104E100000FB04F420340D4B1C4404344FF6FE73A5
:104E20009A420BD892B2204601F0ACF806462046D2
:104E300001F00EF83F2804D8304670BD4FF6FF72DF
:104E4000F1E72846FFF778FFF6E700BFB012002031
:104E500008B54FF4327303FB00F02030024B1844C6
:104E6000043001F026F808BDB01200202DE9F0430F
:104E700083B04FF432720021264801F0C1F80025BA
:104E8000254B1D7015B103B0BDE8F083214F4FF4E1
:104E9000327405FB04F43E19FF2373714FF4E133C0
:104EA000B3604FF0000886F80C8086F80D80082368
:104EB000B37304F1380104F11000CDF80080012330
:104EC0004FF480723944384400F091FF04F59C712E
:104ED00004F120003844012300934FF480723944D8
:104EE000043000F084FF04F50E79B9444846FBF71E
:104EF000D9FD04F510743C442046FBF7D3FDC6F8F9
:104F00001C80C6F820903463C6F834800135EDB2B9
:104F1000B8E700BFB0120020AC12002000230BB194
:104F2000012070479C460E4A4FF4327101FB032268
:104F3000116A106B39B10A4A4FF4327101FB032236
:104F40000021D161116238B1054A4FF4327101FB81
:104F50000C220021116351630133DBB2DFE700BF94
:104F6000B012002038B5002404B138BD25464FF4F6
:104F7000327304FB03F3194958180022CA50027116
:104F8000174B1B7813F0010F12D0154B1B7813F041
:104F9000020F17D04FF4327303FB05F020300F4B94
:104FA00018440121043001F00DF80134E4B2DBE7CC
:104FB0004FF4327304FB03F310330846184400F037
:104FC000E6FFE2E74FF4327005FB00F02030034BC0
:104FD0001844043000F0DBFFDCE700BFB012002013
:104FE000AC120020F0B583B04B79022B7BD1054683
:104FF0008B79022B7BD100237BB14FF49A723D4910
:105000003D48FEF7E9F84FF0E023D3F8F03D13F008
:10501000010F00D000BE002466E038484FF432741F
:1050200004FB0300807810B10133DBB2E4E704FB3A
:1050300003F332481E188C78C4540F780F440924A7
:105040007B78242B06D1944204D83B781C44A4B22C
:105050001F44F5E7052B09D07B78042B02D17B791F
:105060000A2B1FD03046FFF7EBFD3DE039462846BE
:10507000FFF734F830B1BB7873703B781C44A4B2AE
:105080001F44E9E74FF4A3721A491B48FEF7A4F83E
:105090004FF0E023D3F8F03D13F0010F00D000BE35
:1050A000002421E039780C44A4B2B31C0193F31C12
:1050B000009302231A4639442846FFF74DF810B1F1
:1050C0000E34A4B2CEE740F255120A490A48FEF760
:1050D00083F84FF0E023D3F8F03D13F0010F00D038
:1050E00000BE002400E00024204603B0F0BD0024F0
:1050F000FAE700BF30710010106C0010B0120020F1
:10510000137803F06003202B72D170B594463E4AA9
:105110000024002C6ED192F800E0BCF804309E45CB
:1051200004D00134E4B202F53272F2E79CF80130A7
:10513000203B032B60D8DFE803F002192447012944
:1051400003D0032908D0012055E007230832614627
:10515000FFF77CFC01204EE02C4B002B4ED002F1DF
:1051600008012046FEF7B6F8012044E0012901D0ED
:10517000012040E0072308326146FFF767FC012069
:1051800039E0012903D0032906D0012033E061462C
:10519000FFF748FC01202EE0BCF8023013F00101BB
:1051A0000D46C3F3400613710CBF0121002102F12B
:1051B000240000F007FF164B13B332462946204661
:1051C000AFF30080012016E0012903D0032906D0A7
:1051D000012010E06146FFF725FC01200BE00D4B9C
:1051E00083B1BCF802102046AFF30080012002E03A
:1051F00000207047002070BD0020FCE70120FAE786
:105200000120F8E70120F6E7B0120020D5320010A7
:1052100000000000000000002DE9F04707460E46A0
:105220009946002454B1BCB9EB78B34224D0AB7892
:10523000B34255D001242046BDE8F0874FF43273C5
:105240003D4D03FB0455EB78B342ECD0AB78B34251
:10525000E9D00134E4B2E5E740F2B5123749384805
:10526000FDF7BAFF4FF0E023D3F8F03D13F0010F44
:1052700000D000BE0024DEE705F1100A1FFA89F213
:1052800005F51271504600F07DFE2E4BD3B16B79BF
:10529000FF2B17D04FF0000801E008F10108C845C6
:1052A00010D26A7905EB080393F848329A42F4D198
:1052B000504600F0E1FD0028EFD169792046AFF3B8
:1052C0000080EAE7204B1BB1504600F0D5FD18B135
:1052D0002846FFF7B5FCAAE72046AFF30080F7E7C2
:1052E0001A4B13B12046AFF300802046FFF724FD90
:1052F00008B101249FE705F1240000F0A9FDB0B931
:10530000B9F1000F15D019F03F0F01D0012492E739
:10531000A9783846FEF772FF044608B901248AE7E7
:1053200000231A46A9783846FEF790FF83E7012448
:1053300081E701247FE700BFB01200202071001038
:10534000106C0010000000000000000000000000D1
:1053500098B90B4B4FF4337101FB003393F8A9312B
:105360003BB9074B01FB003393F885301BB101209B
:10537000704701207047002070470020704700BF31
:105380001017002008B10020704708B501464FF4FF
:10539000337303FB01F18031024B1944043100F0F7
:1053A000DDFA08BD101700202DE9F04184B04FF45C
:1053B000337200211E4800F023FE002515B104B011
:1053C000BDE8F0814FF4337405FB04F404F5E47395
:1053D000174E33440433A219043204F5D4704FF04D
:1053E0004008CDF80C8002924FF48077019700932B
:1053F00000231A461946304400F03BFA04F1A0039A
:105400003344083304EB08023244043204F18000D0
:105410003044CDF80C8002920197009300230122C2
:105420001946043000F025FA0135EDB2C6E700BF99
:105430001017002070B500250DB1012070BD4FF48C
:10544000337405FB04F404F5D470064E304400F0C8
:105450003AFA04F180003044043000F034FA0135A7
:10546000EDB2E9E71017002070B5002505B170BD59
:105470004FF4337405FB04F4084E0023335504F550
:10548000D870304400F083FD04F1880030440430CB
:1054900000F07DFD0135EDB2E8E700BF10170020F8
:1054A0004B79FF2B40F094802DE9F04780460F4662
:1054B0000C780C44A518002616B10020BDE8F08732
:1054C0003046FFF745FF10B10136F6B2F4E74FF46E
:1054D000337306FB03F33F4A03EB0209B978D15457
:1054E0002AE0AC4271D221464046FEF7F7FD70B388
:1054F0000136F6B2A378DB0938D109F5D47A09F57B
:10550000D87000F044FDA37889F8A931A388C3F3CB
:105510000A03B3F5007F14BF0023012399F8A821E3
:1055200063F3410289F8A8215146404600F062FA2F
:1055300000283BD023781C443B79B34245D963789B
:10554000052BCED0AC42CCD223781C44F7E7DA222C
:1055500021492248FDF740FE4FF0E023D3F8F03D0B
:1055600013F0010F00D000BE0020A7E709F18C0066
:1055700000F00DFDA37889F88530A388C3F30A03F2
:10558000B3F5007F14BF0023012399F8842063F34F
:10559000410289F884200F48A9EB00008010104BCD
:1055A00003FB00F0C0B2FFF7EDFEC3E7E2220A49B9
:1055B0000A48FDF711FE4FF0E023D3F8F03D13F059
:1055C000010F00D000BE002078E7E11B88B275E72C
:1055D000002070471017002054710010106C00104C
:1055E0007BAE62D9F8B505461E46244F0024002C38
:1055F00042D197F8A9318B4208D097F885208A428A
:1056000004D00134E4B207F53377F0E78B4205D0DC
:1056100097F885308B421AD001202EE0B7F8B431CC
:105620006BB9174B23B1B2B2391D2046AFF30080DE
:1056300007F5D471284600F0DDF901201DE0B2B273
:10564000D7F8AC1107F5D87000F09CFCE9E70D4BDA
:105650001BB1B1B22046AFF30080843739462846EB
:1056600000F07CF908B1012007E0324639462846AF
:1056700000F02CF9012000E00020F8BD10170020F8
:10568000000000000000000010B50020FEF7B4FC90
:10569000044608B1204610BD312206490648FDF7F0
:1056A0009BFD4FF0E023D3F8F03D13F0010FF1D054
:1056B00000BEEFE7D4710010106C001070B5044606
:1056C000037813F001001FD10D462378C3F3800641
:1056D00013F0040F19D14FF0FF31284600F094FD6C
:1056E000237813F0010308D1227812F0040F09D1B6
:1056F000237843F0040323700126284600F098FD28
:10570000304602E01E46F8E7002070BD70B5054641
:105710000C464FF0FF31204600F076FD2B78C3F3A6
:10572000800613F0040F04D1204600F081FD3046BE
:1057300070BD2B7813F0010F04D12B7823F00403F4
:105740002B70F1E70026EFE708B58388C3F30A0260
:10575000C37803F00303022B1DD0032B44D0012B8D
:105760005BD1022905D040F2FF33934204D30120DC
:1057700054E04FF48063F8E7902229492948FDF767
:105780002BFD4FF0E023D3F8F03D13F0010F00D0D4
:1057900000BE002042E0022903D0402A15D8012093
:1057A0003CE0B2F5007F01D1012037E097221C498F
:1057B0001C48FDF711FD4FF0E023D3F8F03D13F046
:1057C000010F00D000BE002028E09A22144915489D
:1057D000FDF702FD4FF0E023D3F8F03D13F0010F89
:1057E00000D000BE002019E0022904D040239342DB
:1057F00004D3012012E04FF48063F8E7A0220849A7
:105800000848FDF7E9FC4FF0E023D3F8F03D13F032
:10581000010F00D000BE002000E0002008BD00BF46
:10582000C0710010106C00100A4404E05DF804FB25
:1058300091F800C0614491421AD291F801C0BCF1C4
:10584000050FF5D100B591F802C00CF07F0E00EB0A
:105850004E0E4FEADC1C0EF80C3091F800C061448B
:105860009142E3D291F801C0BCF1050FF5D1EAE70E
:105870007047F0B583B004461746089DBDF8246014
:1058800090F800C061F3000C00F808CB00930123EE
:105890003246294600F0ABFA05B13EB90A9B636077
:1058A000BDF82C306380012003B0F0BD04F11C056D
:1058B0002846FBF7F7F827B12B4600256361A56161
:1058C000ECE70023FAE7012070470000F8B5064630
:1058D0000C4615460B7813F0020F10D04FF40077EA
:1058E00004F1080000F0B4FA68BB75B3013F2F4221
:1058F0002DD1237813F0010F03D0002024E040279E
:10590000EEE761783046FEF779FC0028F5D0237881
:1059100013F0010F0FD040F225120E490E48FDF78B
:105920005BFC4FF0E023D3F8F03D13F0010F00D003
:1059300000BE002008E000231A4661783046FEF7DA
:1059400085FC08B9E7E70020F8BD0020FCE700204F
:10595000FAE700BF9C710010106C001070B506468D
:105960000C4601F10805284600F072FA00283BD0E9
:10597000237813F0010F01D0002070BD617830460C
:10598000FEF73CFC0028F7D062886168284600F0EA
:10599000C5FA0546E8B1237813F0010F0FD040F2A5
:1059A000331212491248FDF717FC4FF0E023D3F8E9
:1059B000F03D13F0010F00D000BE0020DDE70346EC
:1059C000626861783046FEF741FC0028E7D028463F
:1059D000D3E7237813F0010F01D00020CDE76178E1
:1059E0003046FEF71FFCF8E70020C6E78071001084
:1059F000106C0010F8B506460C468B895BBB0B7823
:105A000013F0010F01D00020F8BD4978FEF7F6FB36
:105A10000028F8D06388227812F0010F0FD040F2EE
:105A20006D1238493848FDF7D7FB4FF0E023D3F823
:105A3000F03D13F0010F00D000BE0020E4E76178D4
:105A40003BB162683046FEF701FC0028E7D0608871
:105A5000DAE70022F6E70B7813F0020F0ED04FF4CE
:105A6000007504F10807384600F023FA854247D84C
:105A7000237813F0010F03D00020C5E74025F0E79D
:105A800061783046FEF7BAFB0028F5D0384600F0C2
:105A900010FA854229D86D42ADB2628805EA00034A
:105AA000934228BF13461D46237813F0010F0FD0F1
:105AB0004FF4C17213491448FDF78EFB4FF0E023F9
:105AC000D3F8F03D13F0010F00D000BE00209BE79B
:105AD000617845B162682B463046FEF7B7FB002877
